{
  "contractName": "KittyContract",
  "abi": [
    {
      "constant": true,
      "inputs": [
        {
          "name": "",
          "type": "uint256"
        }
      ],
      "name": "kitties",
      "outputs": [
        {
          "name": "name",
          "type": "string"
        },
        {
          "name": "genes",
          "type": "uint256"
        },
        {
          "name": "birthTime",
          "type": "uint64"
        },
        {
          "name": "matronId",
          "type": "uint32"
        },
        {
          "name": "sireId",
          "type": "uint32"
        },
        {
          "name": "generation",
          "type": "uint32"
        }
      ],
      "payable": false,
      "stateMutability": "view",
      "type": "function"
    },
    {
      "constant": false,
      "inputs": [
        {
          "name": "_name",
          "type": "string"
        }
      ],
      "name": "createKitty",
      "outputs": [],
      "payable": false,
      "stateMutability": "nonpayable",
      "type": "function"
    },
    {
      "constant": true,
      "inputs": [],
      "name": "getKittyCount",
      "outputs": [
        {
          "name": "",
          "type": "uint256"
        }
      ],
      "payable": false,
      "stateMutability": "view",
      "type": "function"
    },
    {
      "constant": true,
      "inputs": [
        {
          "name": "_id",
          "type": "uint256"
        }
      ],
      "name": "getKitty",
      "outputs": [
        {
          "name": "name",
          "type": "string"
        },
        {
          "name": "isGestating",
          "type": "bool"
        },
        {
          "name": "isReady",
          "type": "bool"
        },
        {
          "name": "cooldownIndex",
          "type": "uint256"
        },
        {
          "name": "nextActionAt",
          "type": "uint256"
        },
        {
          "name": "siringWithId",
          "type": "uint256"
        },
        {
          "name": "birthTime",
          "type": "uint256"
        },
        {
          "name": "matronId",
          "type": "uint256"
        },
        {
          "name": "sireId",
          "type": "uint256"
        },
        {
          "name": "generation",
          "type": "uint256"
        },
        {
          "name": "genes",
          "type": "uint256"
        }
      ],
      "payable": false,
      "stateMutability": "view",
      "type": "function"
    }
  ],
  "bytecode": "0x608060405234801561001057600080fd5b5061093d806100206000396000f300608060405260043610610062576000357c0100000000000000000000000000000000000000000000000000000000900463ffffffff16806335844dad146100675780638cc51eda146100d0578063e98b7f4d146101d1578063ed3c6923146102c5575b600080fd5b34801561007357600080fd5b506100ce600480360381019080803590602001908201803590602001908080601f01602080910402602001604051908101604052809392919081815260200183838082843782019150505050505091929192905050506102f0565b005b3480156100dc57600080fd5b506100fb60048036038101908080359060200190929190505050610455565b60405180806020018781526020018667ffffffffffffffff1667ffffffffffffffff1681526020018563ffffffff1663ffffffff1681526020018463ffffffff1663ffffffff1681526020018363ffffffff1663ffffffff168152602001828103825288818151815260200191508051906020019080838360005b83811015610191578082015181840152602081019050610176565b50505050905090810190601f1680156101be5780820380516001836020036101000a031916815260200191505b5097505050505050505060405180910390f35b3480156101dd57600080fd5b506101fc6004803603810190808035906020019092919050505061057c565b60405180806020018c1515151581526020018b1515151581526020018a815260200189815260200188815260200187815260200186815260200185815260200184815260200183815260200182810382528d818151815260200191508051906020019080838360005b83811015610280578082015181840152602081019050610265565b50505050905090810190601f1680156102ad5780820380516001836020036101000a031916815260200191505b509c5050505050505050505050505060405180910390f35b3480156102d157600080fd5b506102da61070a565b6040518082815260200191505060405180910390f35b60006102fa610819565b61030383610716565b915060c0604051908101604052808481526020018381526020014267ffffffffffffffff168152602001600063ffffffff168152602001600063ffffffff168152602001600163ffffffff16815250905060008190806001815401808255809150509060018203906000526020600020906003020160009091929091909150600082015181600001908051906020019061039e92919061086c565b506020820151816001015560408201518160020160006101000a81548167ffffffffffffffff021916908367ffffffffffffffff16021790555060608201518160020160086101000a81548163ffffffff021916908363ffffffff160217905550608082015181600201600c6101000a81548163ffffffff021916908363ffffffff16021790555060a08201518160020160106101000a81548163ffffffff021916908363ffffffff160217905550505050505050565b60008181548110151561046457fe5b9060005260206000209060030201600091509050806000018054600181600116156101000203166002900480601f0160208091040260200160405190810160405280929190818152602001828054600181600116156101000203166002900480156105105780601f106104e557610100808354040283529160200191610510565b820191906000526020600020905b8154815290600101906020018083116104f357829003601f168201915b5050505050908060010154908060020160009054906101000a900467ffffffffffffffff16908060020160089054906101000a900463ffffffff169080600201600c9054906101000a900463ffffffff16908060020160109054906101000a900463ffffffff16905086565b60606000806000806000806000806000806000808d81548110151561059d57fe5b90600052602060002090600302019050806000016000600160008060008660020160009054906101000a900467ffffffffffffffff168760020160089054906101000a900463ffffffff1688600201600c9054906101000a900463ffffffff168960020160109054906101000a900463ffffffff168a600101548a8054600181600116156101000203166002900480601f0160208091040260200160405190810160405280929190818152602001828054600181600116156101000203166002900480156106ac5780601f10610681576101008083540402835291602001916106ac565b820191906000526020600020905b81548152906001019060200180831161068f57829003601f168201915b50505050509a508797508696508595508467ffffffffffffffff1694508363ffffffff1693508263ffffffff1692508163ffffffff1691509b509b509b509b509b509b509b509b509b509b509b505091939597999b90929496989a50565b60008080549050905090565b6000808242446040516020018084805190602001908083835b602083101515610754578051825260208201915060208101905060208303925061072f565b6001836020036101000a03801982511681845116808217855250505050505090500183815260200182815260200193505050506040516020818303038152906040526040518082805190602001908083835b6020831015156107cb57805182526020820191506020810190506020830392506107a6565b6001836020036101000a0380198251168184511680821785525050505050509050019150506040518091039020600190049050662386f26fc100008181151561081057fe5b06915050919050565b60c0604051908101604052806060815260200160008152602001600067ffffffffffffffff168152602001600063ffffffff168152602001600063ffffffff168152602001600063ffffffff1681525090565b828054600181600116156101000203166002900490600052602060002090601f016020900481019282601f106108ad57805160ff19168380011785556108db565b828001600101855582156108db579182015b828111156108da5782518255916020019190600101906108bf565b5b5090506108e891906108ec565b5090565b61090e91905b8082111561090a5760008160009055506001016108f2565b5090565b905600a165627a7a723058201900ff385e4f28539b4497d41e1a1475af130e443bf42765c43ef9bc047e9af40029",
  "source": "pragma solidity ^0.4.25;\n\ncontract KittyContract {\n    struct Kitty {\n        string name;       // Added a name field\n        uint256 genes;\n        uint64 birthTime;\n        uint32 matronId;\n        uint32 sireId;\n        uint32 generation;\n    }\n\n    Kitty[] public kitties;\n\n    // Function to create a new kitty with a random gene and a given name\n    function createKitty(string memory _name) public {\n        uint256 randomGenes = _generateRandomGenes(_name); // Generate random genes based on the name\n        Kitty memory newKitty = Kitty({\n            name: _name,\n            genes: randomGenes,\n            birthTime: uint64(now),\n            matronId: 0,\n            sireId: 0,\n            generation: 1\n        });\n        kitties.push(newKitty); // Push the new kitty to the array\n    }\n\n    // Function to generate pseudo-random genes based on the kitty name\n    function _generateRandomGenes(string memory _name) private view returns (uint256) {\n        uint256 random = uint256(keccak256(abi.encodePacked(_name, block.timestamp, block.difficulty)));\n        return random % (10**16); // Limiting the size of the genes to 16 digits\n    }\n\n    // Function to get the number of kitties\n    function getKittyCount() public view returns (uint256) {\n        return kitties.length;\n    }\n\n    // Function to get details of a specific kitty\n    function getKitty(uint256 _id) external view returns (\n        string memory name,\n        bool isGestating,\n        bool isReady,\n        uint256 cooldownIndex,\n        uint256 nextActionAt,\n        uint256 siringWithId,\n        uint256 birthTime,\n        uint256 matronId,\n        uint256 sireId,\n        uint256 generation,\n        uint256 genes\n    ) {\n        Kitty storage kitty = kitties[_id];\n        return (\n            kitty.name,\n            false, // isGestating\n            true,  // isReady\n            0,     // cooldownIndex\n            0,     // nextActionAt\n            0,     // siringWithId\n            kitty.birthTime,\n            kitty.matronId,\n            kitty.sireId,\n            kitty.generation,\n            kitty.genes\n        );\n    }\n}\n",
  "sourcePath": "/Users/dheerajkommineni/Desktop/AdvBlockchain/StarterPack/Cryptozombie demo package/contracts/kittycontract.sol",
  "compiler": {
    "name": "solc",
    "version": "0.4.25+commit.59dbf8f1.Emscripten.clang"
  },
  "schemaVersion": "3.4.16",
  "updatedAt": "2024-10-21T01:56:29.428Z",
  "networkType": "ethereum",
  "devdoc": {
    "methods": {}
  },
  "userdoc": {
    "methods": {}
  }
}