{
  "contractName": "ZombieAttack",
  "abi": [
    {
      "constant": false,
      "inputs": [
        {
          "name": "_zombieId",
          "type": "uint256"
        }
      ],
      "name": "levelUp",
      "outputs": [],
      "payable": true,
      "stateMutability": "payable",
      "type": "function"
    },
    {
      "constant": false,
      "inputs": [
        {
          "name": "_zombieId",
          "type": "uint256"
        },
        {
          "name": "_kittyId",
          "type": "uint256"
        }
      ],
      "name": "feedOnKitty",
      "outputs": [],
      "payable": false,
      "stateMutability": "nonpayable",
      "type": "function"
    },
    {
      "constant": true,
      "inputs": [
        {
          "name": "",
          "type": "uint256"
        }
      ],
      "name": "zombies",
      "outputs": [
        {
          "name": "name",
          "type": "string"
        },
        {
          "name": "dna",
          "type": "uint256"
        },
        {
          "name": "level",
          "type": "uint32"
        },
        {
          "name": "readyTime",
          "type": "uint32"
        },
        {
          "name": "winCount",
          "type": "uint16"
        },
        {
          "name": "lossCount",
          "type": "uint16"
        }
      ],
      "payable": false,
      "stateMutability": "view",
      "type": "function"
    },
    {
      "constant": true,
      "inputs": [],
      "name": "getKittyContractAddress",
      "outputs": [
        {
          "name": "",
          "type": "address"
        }
      ],
      "payable": false,
      "stateMutability": "view",
      "type": "function"
    },
    {
      "constant": false,
      "inputs": [],
      "name": "withdraw",
      "outputs": [],
      "payable": false,
      "stateMutability": "nonpayable",
      "type": "function"
    },
    {
      "constant": true,
      "inputs": [
        {
          "name": "_owner",
          "type": "address"
        }
      ],
      "name": "getZombiesByOwner",
      "outputs": [
        {
          "name": "",
          "type": "uint256[]"
        }
      ],
      "payable": false,
      "stateMutability": "view",
      "type": "function"
    },
    {
      "constant": true,
      "inputs": [
        {
          "name": "",
          "type": "uint256"
        }
      ],
      "name": "zombieToOwner",
      "outputs": [
        {
          "name": "",
          "type": "address"
        }
      ],
      "payable": false,
      "stateMutability": "view",
      "type": "function"
    },
    {
      "constant": false,
      "inputs": [
        {
          "name": "_address",
          "type": "address"
        }
      ],
      "name": "setKittyContractAddress",
      "outputs": [],
      "payable": false,
      "stateMutability": "nonpayable",
      "type": "function"
    },
    {
      "constant": true,
      "inputs": [],
      "name": "kittyContract",
      "outputs": [
        {
          "name": "",
          "type": "address"
        }
      ],
      "payable": false,
      "stateMutability": "view",
      "type": "function"
    },
    {
      "constant": false,
      "inputs": [
        {
          "name": "_zombieId",
          "type": "uint256"
        },
        {
          "name": "_newDna",
          "type": "uint256"
        }
      ],
      "name": "changeDna",
      "outputs": [],
      "payable": false,
      "stateMutability": "nonpayable",
      "type": "function"
    },
    {
      "constant": false,
      "inputs": [],
      "name": "renounceOwnership",
      "outputs": [],
      "payable": false,
      "stateMutability": "nonpayable",
      "type": "function"
    },
    {
      "constant": false,
      "inputs": [
        {
          "name": "_name",
          "type": "string"
        }
      ],
      "name": "createRandomZombie",
      "outputs": [],
      "payable": false,
      "stateMutability": "nonpayable",
      "type": "function"
    },
    {
      "constant": true,
      "inputs": [],
      "name": "owner",
      "outputs": [
        {
          "name": "",
          "type": "address"
        }
      ],
      "payable": false,
      "stateMutability": "view",
      "type": "function"
    },
    {
      "constant": true,
      "inputs": [],
      "name": "isOwner",
      "outputs": [
        {
          "name": "",
          "type": "bool"
        }
      ],
      "payable": false,
      "stateMutability": "view",
      "type": "function"
    },
    {
      "constant": false,
      "inputs": [
        {
          "name": "_zombieId",
          "type": "uint256"
        },
        {
          "name": "_newName",
          "type": "string"
        }
      ],
      "name": "changeName",
      "outputs": [],
      "payable": false,
      "stateMutability": "nonpayable",
      "type": "function"
    },
    {
      "constant": false,
      "inputs": [
        {
          "name": "_fee",
          "type": "uint256"
        }
      ],
      "name": "setLevelUpFee",
      "outputs": [],
      "payable": false,
      "stateMutability": "nonpayable",
      "type": "function"
    },
    {
      "constant": true,
      "inputs": [],
      "name": "getZombiesCount",
      "outputs": [
        {
          "name": "",
          "type": "uint256"
        }
      ],
      "payable": false,
      "stateMutability": "view",
      "type": "function"
    },
    {
      "constant": false,
      "inputs": [
        {
          "name": "newOwner",
          "type": "address"
        }
      ],
      "name": "transferOwnership",
      "outputs": [],
      "payable": false,
      "stateMutability": "nonpayable",
      "type": "function"
    },
    {
      "anonymous": false,
      "inputs": [
        {
          "indexed": false,
          "name": "success",
          "type": "bool"
        },
        {
          "indexed": false,
          "name": "zombieId",
          "type": "uint256"
        },
        {
          "indexed": false,
          "name": "targetId",
          "type": "uint256"
        }
      ],
      "name": "AttackResult",
      "type": "event"
    },
    {
      "anonymous": false,
      "inputs": [
        {
          "indexed": true,
          "name": "zombieId",
          "type": "uint256"
        },
        {
          "indexed": true,
          "name": "kittyId",
          "type": "uint256"
        }
      ],
      "name": "FeedOnKitty",
      "type": "event"
    },
    {
      "anonymous": false,
      "inputs": [
        {
          "indexed": true,
          "name": "zombieId",
          "type": "uint256"
        },
        {
          "indexed": false,
          "name": "newDna",
          "type": "uint256"
        }
      ],
      "name": "ZombieFed",
      "type": "event"
    },
    {
      "anonymous": false,
      "inputs": [
        {
          "indexed": false,
          "name": "zombieId",
          "type": "uint256"
        },
        {
          "indexed": false,
          "name": "name",
          "type": "string"
        },
        {
          "indexed": false,
          "name": "dna",
          "type": "uint256"
        }
      ],
      "name": "NewZombie",
      "type": "event"
    },
    {
      "anonymous": false,
      "inputs": [
        {
          "indexed": true,
          "name": "previousOwner",
          "type": "address"
        },
        {
          "indexed": true,
          "name": "newOwner",
          "type": "address"
        }
      ],
      "name": "OwnershipTransferred",
      "type": "event"
    },
    {
      "constant": false,
      "inputs": [
        {
          "name": "_zombieId",
          "type": "uint256"
        },
        {
          "name": "_targetId",
          "type": "uint256"
        }
      ],
      "name": "attack",
      "outputs": [],
      "payable": false,
      "stateMutability": "nonpayable",
      "type": "function"
    }
  ],
  "bytecode": "0x60806040526010600155600154600a0a600255603c600355603c60085566038d7ea4c680006009556000600a556046600b55336000806101000a81548173ffffffffffffffffffffffffffffffffffffffff021916908373ffffffffffffffffffffffffffffffffffffffff1602179055506000809054906101000a900473ffffffffffffffffffffffffffffffffffffffff1673ffffffffffffffffffffffffffffffffffffffff16600073ffffffffffffffffffffffffffffffffffffffff167f8be0079c531659141344cd1fd0a4f28419497f9722a3daafe3b4186f6b6457e060405160405180910390a3612348806100fc6000396000f300608060405260043610610107576000357c0100000000000000000000000000000000000000000000000000000000900463ffffffff1680630ce90ec21461010c57806317a7f4cc1461012c5780632052465e146101635780632a2cd535146102545780633ccfd60b146102ab5780634412e104146102c2578063528b7b8f1461035a5780635f4623f1146103c75780635f9da25c1461040a5780635faf288014610461578063715018a6146104985780637bff0a01146104af5780638da5cb5b146105185780638f32d59b1461056f578063c39cbef11461059e578063ccf670f8146105e3578063e1fa763814610610578063e343cdec14610647578063f2fde38b14610672575b600080fd5b61012a600480360381019080803590602001909291905050506106b5565b005b34801561013857600080fd5b506101616004803603810190808035906020019092919080359060200190929190505050610750565b005b34801561016f57600080fd5b5061018e60048036038101908080359060200190929190505050610a88565b60405180806020018781526020018663ffffffff1663ffffffff1681526020018563ffffffff1663ffffffff1681526020018461ffff1661ffff1681526020018361ffff1661ffff168152602001828103825288818151815260200191508051906020019080838360005b838110156102145780820151818401526020810190506101f9565b50505050905090810190601f1680156102415780820380516001836020036101000a031916815260200191505b5097505050505050505060405180910390f35b34801561026057600080fd5b50610269610ba7565b604051808273ffffffffffffffffffffffffffffffffffffffff1673ffffffffffffffffffffffffffffffffffffffff16815260200191505060405180910390f35b3480156102b757600080fd5b506102c0610bd1565b005b3480156102ce57600080fd5b50610303600480360381019080803573ffffffffffffffffffffffffffffffffffffffff169060200190929190505050610c51565b6040518080602001828103825283818151815260200191508051906020019060200280838360005b8381101561034657808201518184015260208101905061032b565b505050509050019250505060405180910390f35b34801561036657600080fd5b5061038560048036038101908080359060200190929190505050610d83565b604051808273ffffffffffffffffffffffffffffffffffffffff1673ffffffffffffffffffffffffffffffffffffffff16815260200191505060405180910390f35b3480156103d357600080fd5b50610408600480360381019080803573ffffffffffffffffffffffffffffffffffffffff169060200190929190505050610db6565b005b34801561041657600080fd5b5061041f610dfa565b604051808273ffffffffffffffffffffffffffffffffffffffff1673ffffffffffffffffffffffffffffffffffffffff16815260200191505060405180910390f35b34801561046d57600080fd5b506104966004803603810190808035906020019092919080359060200190929190505050610e20565b005b3480156104a457600080fd5b506104ad610f71565b005b3480156104bb57600080fd5b50610516600480360381019080803590602001908201803590602001908080601f0160208091040260200160405190810160405280939291908181526020018383808284378201915050505050509192919290505050611043565b005b34801561052457600080fd5b5061052d61106f565b604051808273ffffffffffffffffffffffffffffffffffffffff1673ffffffffffffffffffffffffffffffffffffffff16815260200191505060405180910390f35b34801561057b57600080fd5b50610584611098565b604051808215151515815260200191505060405180910390f35b3480156105aa57600080fd5b506105e1600480360381019080803590602001909291908035906020019082018035906020019190919293919293905050506110ef565b005b3480156105ef57600080fd5b5061060e6004803603810190808035906020019092919050505061124c565b005b34801561061c57600080fd5b506106456004803603810190808035906020019092919080359060200190929190505050611269565b005b34801561065357600080fd5b5061065c6117ce565b6040518082815260200191505060405180910390f35b34801561067e57600080fd5b506106b3600480360381019080803573ffffffffffffffffffffffffffffffffffffffff1690602001909291905050506117db565b005b600954341415156106c557600080fd5b61070f60016004838154811015156106d957fe5b906000526020600020906003020160020160009054906101000a900463ffffffff1663ffffffff166117fa90919063ffffffff16565b60048281548110151561071e57fe5b906000526020600020906003020160020160006101000a81548163ffffffff021916908363ffffffff16021790555050565b6000600480549050831015156107ce576040517f08c379a00000000000000000000000000000000000000000000000000000000081526004018080602001828103825260178152602001807f5a6f6d626965204944206f7574206f6620626f756e647300000000000000000081525060200191505060405180910390fd5b600760009054906101000a900473ffffffffffffffffffffffffffffffffffffffff1673ffffffffffffffffffffffffffffffffffffffff1663e98b7f4d836040518263ffffffff167c010000000000000000000000000000000000000000000000000000000002815260040180828152602001915050600060405180830381600087803b15801561085f57600080fd5b505af1158015610873573d6000803e3d6000fd5b505050506040513d6000823e3d601f19601f8201168201806040525061016081101561089e57600080fd5b8101908080516401000000008111156108b657600080fd5b828101905060208101848111156108cc57600080fd5b81518560018202830111640100000000821117156108e957600080fd5b505092919060200180519060200190929190805190602001909291908051906020019092919080519060200190929190805190602001909291908051906020019092919080519060200190929190805190602001909291908051906020019092919080519060200190929190505050909192939495969798995090919293949596979850909192939495969750909192939495965090919293949550909192939450909192935090919250909150905080915050600081111515610a15576040517f08c379a00000000000000000000000000000000000000000000000000000000081526004018080602001828103825260118152602001807f4b6974747920444e4120696e76616c696400000000000000000000000000000081525060200191505060405180910390fd5b81837f39c459c43422beef4ce5057cb924f4158e6c1b478d24e57e284f6b3d1df078c760405160405180910390a3610a8383826040805190810160405280600581526020017f6b69747479000000000000000000000000000000000000000000000000000000815250611824565b505050565b600481815481101515610a9757fe5b9060005260206000209060030201600091509050806000018054600181600116156101000203166002900480601f016020809104026020016040519081016040528092919081815260200182805460018160011615610100020316600290048015610b435780601f10610b1857610100808354040283529160200191610b43565b820191906000526020600020905b815481529060010190602001808311610b2657829003601f168201915b5050505050908060010154908060020160009054906101000a900463ffffffff16908060020160049054906101000a900463ffffffff16908060020160089054906101000a900461ffff169080600201600a9054906101000a900461ffff16905086565b6000600760009054906101000a900473ffffffffffffffffffffffffffffffffffffffff16905090565b6000610bdb611098565b1515610be657600080fd5b610bee61106f565b90508073ffffffffffffffffffffffffffffffffffffffff166108fc3073ffffffffffffffffffffffffffffffffffffffff16319081150290604051600060405180830381858888f19350505050158015610c4d573d6000803e3d6000fd5b5050565b606080600080600660008673ffffffffffffffffffffffffffffffffffffffff1673ffffffffffffffffffffffffffffffffffffffff16815260200190815260200160002054604051908082528060200260200182016040528015610cc55781602001602082028038833980820191505090505b50925060009150600090505b600480549050811015610d78578473ffffffffffffffffffffffffffffffffffffffff166005600083815260200190815260200160002060009054906101000a900473ffffffffffffffffffffffffffffffffffffffff1673ffffffffffffffffffffffffffffffffffffffff161415610d6b57808383815181101515610d5457fe5b906020019060200201818152505081806001019250505b8080600101915050610cd1565b829350505050919050565b60056020528060005260406000206000915054906101000a900473ffffffffffffffffffffffffffffffffffffffff1681565b80600760006101000a81548173ffffffffffffffffffffffffffffffffffffffff021916908373ffffffffffffffffffffffffffffffffffffffff16021790555050565b600760009054906101000a900473ffffffffffffffffffffffffffffffffffffffff1681565b60148281600482815481101515610e3357fe5b906000526020600020906003020160020160009054906101000a900463ffffffff1663ffffffff1610151515610e6857600080fd5b8360006005600083815260200190815260200160002060009054906101000a900473ffffffffffffffffffffffffffffffffffffffff1690508073ffffffffffffffffffffffffffffffffffffffff163373ffffffffffffffffffffffffffffffffffffffff16141515610f44576040517f08c379a00000000000000000000000000000000000000000000000000000000081526004018080602001828103825260198152602001807f596f75206d757374206f776e2074686973207a6f6d6269652e0000000000000081525060200191505060405180910390fd5b84600487815481101515610f5457fe5b906000526020600020906003020160010181905550505050505050565b610f79611098565b1515610f8457600080fd5b600073ffffffffffffffffffffffffffffffffffffffff166000809054906101000a900473ffffffffffffffffffffffffffffffffffffffff1673ffffffffffffffffffffffffffffffffffffffff167f8be0079c531659141344cd1fd0a4f28419497f9722a3daafe3b4186f6b6457e060405160405180910390a360008060006101000a81548173ffffffffffffffffffffffffffffffffffffffff021916908373ffffffffffffffffffffffffffffffffffffffff160217905550565b600061104e82611af5565b905060648181151561105c57fe5b068103905061106b8282611be3565b5050565b60008060009054906101000a900473ffffffffffffffffffffffffffffffffffffffff16905090565b60008060009054906101000a900473ffffffffffffffffffffffffffffffffffffffff1673ffffffffffffffffffffffffffffffffffffffff163373ffffffffffffffffffffffffffffffffffffffff1614905090565b6002838160048281548110151561110257fe5b906000526020600020906003020160020160009054906101000a900463ffffffff1663ffffffff161015151561113757600080fd5b8460006005600083815260200190815260200160002060009054906101000a900473ffffffffffffffffffffffffffffffffffffffff1690508073ffffffffffffffffffffffffffffffffffffffff163373ffffffffffffffffffffffffffffffffffffffff16141515611213576040517f08c379a00000000000000000000000000000000000000000000000000000000081526004018080602001828103825260198152602001807f596f75206d757374206f776e2074686973207a6f6d6269652e0000000000000081525060200191505060405180910390fd5b858560048981548110151561122457fe5b906000526020600020906003020160000191906112429291906121f7565b5050505050505050565b611254611098565b151561125f57600080fd5b8060098190555050565b6000806000808560006005600083815260200190815260200160002060009054906101000a900473ffffffffffffffffffffffffffffffffffffffff1690508073ffffffffffffffffffffffffffffffffffffffff163373ffffffffffffffffffffffffffffffffffffffff1614151561134b576040517f08c379a00000000000000000000000000000000000000000000000000000000081526004018080602001828103825260198152602001807f596f75206d757374206f776e2074686973207a6f6d6269652e0000000000000081525060200191505060405180910390fd5b3373ffffffffffffffffffffffffffffffffffffffff16600560008a815260200190815260200160002060009054906101000a900473ffffffffffffffffffffffffffffffffffffffff1673ffffffffffffffffffffffffffffffffffffffff16141515611447576040517f08c379a00000000000000000000000000000000000000000000000000000000081526004018080602001828103825260218152602001807f596f75206d757374206f776e20746865207a6f6d62696520746f20617474616381526020017f6b0000000000000000000000000000000000000000000000000000000000000081525060400191505060405180910390fd5b600480549050871015156114c3576040517f08c379a00000000000000000000000000000000000000000000000000000000081526004018080602001828103825260118152602001807f496e76616c69642074617267657420494400000000000000000000000000000081525060200191505060405180910390fd5b6004888154811015156114d257fe5b906000526020600020906003020195506004878154811015156114f157fe5b90600052602060002090600302019450428660020160049054906101000a900463ffffffff1663ffffffff1611151515611593576040517f08c379a00000000000000000000000000000000000000000000000000000000081526004018080602001828103825260168152602001807f5a6f6d62696520697320636f6f6c696e6720646f776e0000000000000000000081525060200191505060405180910390fd5b61159d6064611f8c565b9350600b54841115925082156116d6576115d760018760020160089054906101000a900461ffff1661ffff1661208f90919063ffffffff16565b8660020160086101000a81548161ffff021916908361ffff16021790555061162360018760020160009054906101000a900463ffffffff1663ffffffff166117fa90919063ffffffff16565b8660020160006101000a81548163ffffffff021916908363ffffffff16021790555061166f600186600201600a9054906101000a900461ffff1661ffff1661208f90919063ffffffff16565b85600201600a6101000a81548161ffff021916908361ffff1602179055506116d18886600101546040805190810160405280600681526020017f7a6f6d6269650000000000000000000000000000000000000000000000000000815250611824565b611770565b611700600187600201600a9054906101000a900461ffff1661ffff1661208f90919063ffffffff16565b86600201600a6101000a81548161ffff021916908361ffff16021790555061174860018660020160089054906101000a900461ffff1661ffff1661208f90919063ffffffff16565b8560020160086101000a81548161ffff021916908361ffff16021790555061176f866120b5565b5b611779866120b5565b7f1e0e8940c43a14e3381da05908e521291d29c1211ab0f45168d7d9a12970578b8389896040518084151515158152602001838152602001828152602001935050505060405180910390a15050505050505050565b6000600480549050905090565b6117e3611098565b15156117ee57600080fd5b6117f7816120df565b50565b60008082840190508363ffffffff168163ffffffff161015151561181a57fe5b8091505092915050565b60008060048581548110151561183657fe5b906000526020600020906003020191506002548481151561185357fe5b06935060028483600101540181151561186857fe5b04905060405160200180807f6b6974747900000000000000000000000000000000000000000000000000000081525060050190506040516020818303038152906040526040518082805190602001908083835b6020831015156118e057805182526020820191506020810190506020830392506118bb565b6001836020036101000a038019825116818451168082178552505050505050905001915050604051809103902060001916836040516020018082805190602001908083835b60208310151561194a5780518252602082019150602081019050602083039250611925565b6001836020036101000a0380198251168184511680821785525050505050509050019150506040516020818303038152906040526040518082805190602001908083835b6020831015156119b3578051825260208201915060208101905060208303925061198e565b6001836020036101000a03801982511681845116808217855250505050505090500191505060405180910390206000191614156119ff5760636064828115156119f857fe5b0682030190505b600081111515611a77576040517f08c379a00000000000000000000000000000000000000000000000000000000081526004018080602001828103825260168152602001807f496e76616c696420444e412063616c63756c617465640000000000000000000081525060200191505060405180910390fd5b611ab66040805190810160405280600681526020017f4e6f4e616d65000000000000000000000000000000000000000000000000000081525082611be3565b847fd9b729d51a298bb5e442ce7e6b3039aa14c55cc3cd568faf20e695ee72c81468826040518082815260200191505060405180910390a25050505050565b600080826040516020018082805190602001908083835b602083101515611b315780518252602082019150602081019050602083039250611b0c565b6001836020036101000a0380198251168184511680821785525050505050509050019150506040516020818303038152906040526040518082805190602001908083835b602083101515611b9a5780518252602082019150602081019050602083039250611b75565b6001836020036101000a038019825116818451168082178552505050505050905001915050604051809103902060019004905060025481811515611bda57fe5b06915050919050565b60006001600460c060405190810160405280868152602001858152602001600163ffffffff168152602001600354420163ffffffff168152602001600061ffff168152602001600061ffff16815250908060018154018082558091505090600182039060005260206000209060030201600090919290919091506000820151816000019080519060200190611c79929190612277565b506020820151816001015560408201518160020160006101000a81548163ffffffff021916908363ffffffff16021790555060608201518160020160046101000a81548163ffffffff021916908363ffffffff16021790555060808201518160020160086101000a81548161ffff021916908361ffff16021790555060a082015181600201600a6101000a81548161ffff021916908361ffff1602179055505050039050336005600083815260200190815260200160002060006101000a81548173ffffffffffffffffffffffffffffffffffffffff021916908373ffffffffffffffffffffffffffffffffffffffff160217905550611dc26001600660003373ffffffffffffffffffffffffffffffffffffffff1673ffffffffffffffffffffffffffffffffffffffff168152602001908152602001600020546121d990919063ffffffff16565b600660003373ffffffffffffffffffffffffffffffffffffffff1673ffffffffffffffffffffffffffffffffffffffff168152602001908152602001600020819055507f88f026aacbbecc90c18411df4b1185fd8d9be2470f1962f192bf84a27d0704b78184846040518084815260200180602001838152602001828103825284818151815260200191508051906020019080838360005b83811015611e75578082015181840152602081019050611e5a565b50505050905090810190601f168015611ea25780820380516001836020036101000a031916815260200191505b5094505050505060405180910390a13373ffffffffffffffffffffffffffffffffffffffff166005600083815260200190815260200160002060009054906101000a900473ffffffffffffffffffffffffffffffffffffffff1673ffffffffffffffffffffffffffffffffffffffff16141515611f87576040517f08c379a00000000000000000000000000000000000000000000000000000000081526004018080602001828103825260178152602001807f5a6f6d626965206f776e657273686970206661696c656400000000000000000081525060200191505060405180910390fd5b505050565b6000611fa46001600a546121d990919063ffffffff16565b600a81905550814233600a54604051602001808481526020018373ffffffffffffffffffffffffffffffffffffffff1673ffffffffffffffffffffffffffffffffffffffff166c0100000000000000000000000002815260140182815260200193505050506040516020818303038152906040526040518082805190602001908083835b60208310151561204d5780518252602082019150602081019050602083039250612028565b6001836020036101000a03801982511681845116808217855250505050505090500191505060405180910390206001900481151561208757fe5b069050919050565b60008082840190508361ffff168161ffff16101515156120ab57fe5b8091505092915050565b60085442018160020160046101000a81548163ffffffff021916908363ffffffff16021790555050565b600073ffffffffffffffffffffffffffffffffffffffff168173ffffffffffffffffffffffffffffffffffffffff161415151561211b57600080fd5b8073ffffffffffffffffffffffffffffffffffffffff166000809054906101000a900473ffffffffffffffffffffffffffffffffffffffff1673ffffffffffffffffffffffffffffffffffffffff167f8be0079c531659141344cd1fd0a4f28419497f9722a3daafe3b4186f6b6457e060405160405180910390a3806000806101000a81548173ffffffffffffffffffffffffffffffffffffffff021916908373ffffffffffffffffffffffffffffffffffffffff16021790555050565b60008082840190508381101515156121ed57fe5b8091505092915050565b828054600181600116156101000203166002900490600052602060002090601f016020900481019282601f1061223857803560ff1916838001178555612266565b82800160010185558215612266579182015b8281111561226557823582559160200191906001019061224a565b5b50905061227391906122f7565b5090565b828054600181600116156101000203166002900490600052602060002090601f016020900481019282601f106122b857805160ff19168380011785556122e6565b828001600101855582156122e6579182015b828111156122e55782518255916020019190600101906122ca565b5b5090506122f391906122f7565b5090565b61231991905b808211156123155760008160009055506001016122fd565b5090565b905600a165627a7a72305820a09e9555fe7cd4cff3eb61b74e31a484ea383245293eb63e5d32d18a37558f590029",
  "source": "pragma solidity ^0.4.25;\n\nimport \"./zombiehelper.sol\";\n\ncontract ZombieAttack is ZombieHelper {\n    uint randNonce = 0;\n    uint attackVictoryProbability = 70;\n\n    // Event emitted after an attack to notify the result\n    event AttackResult(bool success, uint zombieId, uint targetId);\n\n    // Generate random number using block timestamp, sender, and nonce\n    function randMod(uint _modulus) internal returns (uint) {\n        randNonce = randNonce.add(1); // Increase nonce\n        return uint(keccak256(abi.encodePacked(now, msg.sender, randNonce))) % _modulus;\n    }\n\n    // Attack another zombie (target)\n    function attack(uint _zombieId, uint _targetId) external onlyOwnerOf(_zombieId) {\n        // Check if the zombie belongs to the sender\n        require(zombieToOwner[_zombieId] == msg.sender, \"You must own the zombie to attack\");\n\n        // Ensure the target ID is valid\n        require(_targetId < zombies.length, \"Invalid target ID\");\n\n        Zombie storage myZombie = zombies[_zombieId];\n        Zombie storage enemyZombie = zombies[_targetId];\n\n        // Check for cooldown to avoid multiple attacks in a short time\n        require(myZombie.readyTime <= now, \"Zombie is cooling down\");\n\n        uint rand = randMod(100);\n        bool success = rand <= attackVictoryProbability;\n\n        if (success) {\n            // Attack succeeded\n            myZombie.winCount = myZombie.winCount.add(1);\n            myZombie.level = myZombie.level.add(1);\n            enemyZombie.lossCount = enemyZombie.lossCount.add(1);\n\n            // Feed on the losing zombie\n            feedAndMultiply(_zombieId, enemyZombie.dna, \"zombie\");\n        } else {\n            // Attack failed\n            myZombie.lossCount = myZombie.lossCount.add(1);\n            enemyZombie.winCount = enemyZombie.winCount.add(1);\n\n            // Trigger cooldown for the attacking zombie\n            _triggerCooldown(myZombie);\n        }\n\n        // Trigger cooldown for the zombie after attack\n        _triggerCooldown(myZombie);\n\n        // Emit the result of the attack\n        emit AttackResult(success, _zombieId, _targetId);\n    }\n}\n",
  "sourcePath": "/Users/dheerajkommineni/Desktop/AdvBlockchain/StarterPack/Cryptozombie demo package/contracts/zombieattack.sol",
  "compiler": {
    "name": "solc",
    "version": "0.4.25+commit.59dbf8f1.Emscripten.clang"
  },
  "schemaVersion": "3.4.16",
  "updatedAt": "2024-10-21T01:56:29.383Z",
  "networkType": "ethereum",
  "devdoc": {
    "methods": {
      "isOwner()": {
        "return": "true if `msg.sender` is the owner of the contract."
      },
      "owner()": {
        "return": "the address of the owner."
      },
      "renounceOwnership()": {
        "details": "Allows the current owner to relinquish control of the contract."
      },
      "transferOwnership(address)": {
        "details": "Allows the current owner to transfer control of the contract to a newOwner.",
        "params": {
          "newOwner": "The address to transfer ownership to."
        }
      }
    }
  },
  "userdoc": {
    "methods": {
      "renounceOwnership()": {
        "notice": "Renouncing to ownership will leave the contract without an owner. It will not be possible to call the functions with the `onlyOwner` modifier anymore."
      }
    }
  }
}