{
  "contractName": "ZombieAttack",
  "abi": [
    {
      "constant": false,
      "inputs": [
        {
          "name": "_zombieId",
          "type": "uint256"
        }
      ],
      "name": "levelUp",
      "outputs": [],
      "payable": true,
      "stateMutability": "payable",
      "type": "function"
    },
    {
      "constant": false,
      "inputs": [
        {
          "name": "_zombieId",
          "type": "uint256"
        },
        {
          "name": "_kittyId",
          "type": "uint256"
        }
      ],
      "name": "feedOnKitty",
      "outputs": [],
      "payable": false,
      "stateMutability": "nonpayable",
      "type": "function"
    },
    {
      "constant": true,
      "inputs": [
        {
          "name": "",
          "type": "uint256"
        }
      ],
      "name": "zombies",
      "outputs": [
        {
          "name": "name",
          "type": "string"
        },
        {
          "name": "dna",
          "type": "uint256"
        },
        {
          "name": "level",
          "type": "uint32"
        },
        {
          "name": "readyTime",
          "type": "uint32"
        },
        {
          "name": "winCount",
          "type": "uint16"
        },
        {
          "name": "lossCount",
          "type": "uint16"
        }
      ],
      "payable": false,
      "stateMutability": "view",
      "type": "function"
    },
    {
      "constant": true,
      "inputs": [],
      "name": "getKittyContractAddress",
      "outputs": [
        {
          "name": "",
          "type": "address"
        }
      ],
      "payable": false,
      "stateMutability": "view",
      "type": "function"
    },
    {
      "constant": false,
      "inputs": [],
      "name": "withdraw",
      "outputs": [],
      "payable": false,
      "stateMutability": "nonpayable",
      "type": "function"
    },
    {
      "constant": true,
      "inputs": [
        {
          "name": "_owner",
          "type": "address"
        }
      ],
      "name": "getZombiesByOwner",
      "outputs": [
        {
          "name": "",
          "type": "uint256[]"
        }
      ],
      "payable": false,
      "stateMutability": "view",
      "type": "function"
    },
    {
      "constant": true,
      "inputs": [
        {
          "name": "",
          "type": "uint256"
        }
      ],
      "name": "zombieToOwner",
      "outputs": [
        {
          "name": "",
          "type": "address"
        }
      ],
      "payable": false,
      "stateMutability": "view",
      "type": "function"
    },
    {
      "constant": false,
      "inputs": [
        {
          "name": "_address",
          "type": "address"
        }
      ],
      "name": "setKittyContractAddress",
      "outputs": [],
      "payable": false,
      "stateMutability": "nonpayable",
      "type": "function"
    },
    {
      "constant": true,
      "inputs": [],
      "name": "kittyContract",
      "outputs": [
        {
          "name": "",
          "type": "address"
        }
      ],
      "payable": false,
      "stateMutability": "view",
      "type": "function"
    },
    {
      "constant": false,
      "inputs": [
        {
          "name": "_zombieId",
          "type": "uint256"
        },
        {
          "name": "_newDna",
          "type": "uint256"
        }
      ],
      "name": "changeDna",
      "outputs": [],
      "payable": false,
      "stateMutability": "nonpayable",
      "type": "function"
    },
    {
      "constant": false,
      "inputs": [],
      "name": "renounceOwnership",
      "outputs": [],
      "payable": false,
      "stateMutability": "nonpayable",
      "type": "function"
    },
    {
      "constant": false,
      "inputs": [
        {
          "name": "_name",
          "type": "string"
        }
      ],
      "name": "createRandomZombie",
      "outputs": [],
      "payable": false,
      "stateMutability": "nonpayable",
      "type": "function"
    },
    {
      "constant": true,
      "inputs": [],
      "name": "owner",
      "outputs": [
        {
          "name": "",
          "type": "address"
        }
      ],
      "payable": false,
      "stateMutability": "view",
      "type": "function"
    },
    {
      "constant": true,
      "inputs": [],
      "name": "isOwner",
      "outputs": [
        {
          "name": "",
          "type": "bool"
        }
      ],
      "payable": false,
      "stateMutability": "view",
      "type": "function"
    },
    {
      "constant": false,
      "inputs": [
        {
          "name": "_zombieId",
          "type": "uint256"
        },
        {
          "name": "_newName",
          "type": "string"
        }
      ],
      "name": "changeName",
      "outputs": [],
      "payable": false,
      "stateMutability": "nonpayable",
      "type": "function"
    },
    {
      "constant": false,
      "inputs": [
        {
          "name": "_fee",
          "type": "uint256"
        }
      ],
      "name": "setLevelUpFee",
      "outputs": [],
      "payable": false,
      "stateMutability": "nonpayable",
      "type": "function"
    },
    {
      "constant": false,
      "inputs": [
        {
          "name": "_zombieId",
          "type": "uint256"
        }
      ],
      "name": "levelDown",
      "outputs": [],
      "payable": false,
      "stateMutability": "nonpayable",
      "type": "function"
    },
    {
      "constant": true,
      "inputs": [],
      "name": "getZombiesCount",
      "outputs": [
        {
          "name": "",
          "type": "uint256"
        }
      ],
      "payable": false,
      "stateMutability": "view",
      "type": "function"
    },
    {
      "constant": false,
      "inputs": [
        {
          "name": "newOwner",
          "type": "address"
        }
      ],
      "name": "transferOwnership",
      "outputs": [],
      "payable": false,
      "stateMutability": "nonpayable",
      "type": "function"
    },
    {
      "anonymous": false,
      "inputs": [
        {
          "indexed": false,
          "name": "success",
          "type": "bool"
        },
        {
          "indexed": false,
          "name": "zombieId",
          "type": "uint256"
        },
        {
          "indexed": false,
          "name": "targetId",
          "type": "uint256"
        }
      ],
      "name": "AttackResult",
      "type": "event"
    },
    {
      "anonymous": false,
      "inputs": [
        {
          "indexed": true,
          "name": "zombieId",
          "type": "uint256"
        },
        {
          "indexed": true,
          "name": "kittyId",
          "type": "uint256"
        }
      ],
      "name": "FeedOnKitty",
      "type": "event"
    },
    {
      "anonymous": false,
      "inputs": [
        {
          "indexed": true,
          "name": "zombieId",
          "type": "uint256"
        },
        {
          "indexed": false,
          "name": "newDna",
          "type": "uint256"
        }
      ],
      "name": "ZombieFed",
      "type": "event"
    },
    {
      "anonymous": false,
      "inputs": [
        {
          "indexed": false,
          "name": "zombieId",
          "type": "uint256"
        },
        {
          "indexed": false,
          "name": "name",
          "type": "string"
        },
        {
          "indexed": false,
          "name": "dna",
          "type": "uint256"
        }
      ],
      "name": "NewZombie",
      "type": "event"
    },
    {
      "anonymous": false,
      "inputs": [
        {
          "indexed": true,
          "name": "previousOwner",
          "type": "address"
        },
        {
          "indexed": true,
          "name": "newOwner",
          "type": "address"
        }
      ],
      "name": "OwnershipTransferred",
      "type": "event"
    },
    {
      "constant": false,
      "inputs": [
        {
          "name": "_zombieId",
          "type": "uint256"
        },
        {
          "name": "_targetId",
          "type": "uint256"
        }
      ],
      "name": "attack",
      "outputs": [],
      "payable": false,
      "stateMutability": "nonpayable",
      "type": "function"
    }
  ],
  "bytecode": "0x60806040526010600155600154600a0a600255603c600355603c60085566038d7ea4c680006009556000600a556046600b55336000806101000a81548173ffffffffffffffffffffffffffffffffffffffff021916908373ffffffffffffffffffffffffffffffffffffffff1602179055506000809054906101000a900473ffffffffffffffffffffffffffffffffffffffff1673ffffffffffffffffffffffffffffffffffffffff16600073ffffffffffffffffffffffffffffffffffffffff167f8be0079c531659141344cd1fd0a4f28419497f9722a3daafe3b4186f6b6457e060405160405180910390a3612571806100fc6000396000f300608060405260043610610112576000357c0100000000000000000000000000000000000000000000000000000000900463ffffffff1680630ce90ec21461011757806317a7f4cc146101375780632052465e1461016e5780632a2cd5351461025f5780633ccfd60b146102b65780634412e104146102cd578063528b7b8f146103655780635f4623f1146103d25780635f9da25c146104155780635faf28801461046c578063715018a6146104a35780637bff0a01146104ba5780638da5cb5b146105235780638f32d59b1461057a578063c39cbef1146105a9578063ccf670f8146105ee578063e14d2cee1461061b578063e1fa763814610648578063e343cdec1461067f578063f2fde38b146106aa575b600080fd5b610135600480360381019080803590602001909291905050506106ed565b005b34801561014357600080fd5b5061016c6004803603810190808035906020019092919080359060200190929190505050610788565b005b34801561017a57600080fd5b5061019960048036038101908080359060200190929190505050610ac0565b60405180806020018781526020018663ffffffff1663ffffffff1681526020018563ffffffff1663ffffffff1681526020018461ffff1661ffff1681526020018361ffff1661ffff168152602001828103825288818151815260200191508051906020019080838360005b8381101561021f578082015181840152602081019050610204565b50505050905090810190601f16801561024c5780820380516001836020036101000a031916815260200191505b5097505050505050505060405180910390f35b34801561026b57600080fd5b50610274610bdf565b604051808273ffffffffffffffffffffffffffffffffffffffff1673ffffffffffffffffffffffffffffffffffffffff16815260200191505060405180910390f35b3480156102c257600080fd5b506102cb610c09565b005b3480156102d957600080fd5b5061030e600480360381019080803573ffffffffffffffffffffffffffffffffffffffff169060200190929190505050610c89565b6040518080602001828103825283818151815260200191508051906020019060200280838360005b83811015610351578082015181840152602081019050610336565b505050509050019250505060405180910390f35b34801561037157600080fd5b5061039060048036038101908080359060200190929190505050610dbb565b604051808273ffffffffffffffffffffffffffffffffffffffff1673ffffffffffffffffffffffffffffffffffffffff16815260200191505060405180910390f35b3480156103de57600080fd5b50610413600480360381019080803573ffffffffffffffffffffffffffffffffffffffff169060200190929190505050610dee565b005b34801561042157600080fd5b5061042a610e32565b604051808273ffffffffffffffffffffffffffffffffffffffff1673ffffffffffffffffffffffffffffffffffffffff16815260200191505060405180910390f35b34801561047857600080fd5b506104a16004803603810190808035906020019092919080359060200190929190505050610e58565b005b3480156104af57600080fd5b506104b8610fa9565b005b3480156104c657600080fd5b50610521600480360381019080803590602001908201803590602001908080601f016020809104026020016040519081016040528093929190818152602001838380828437820191505050505050919291929050505061107b565b005b34801561052f57600080fd5b506105386110a7565b604051808273ffffffffffffffffffffffffffffffffffffffff1673ffffffffffffffffffffffffffffffffffffffff16815260200191505060405180910390f35b34801561058657600080fd5b5061058f6110d0565b604051808215151515815260200191505060405180910390f35b3480156105b557600080fd5b506105ec60048036038101908080359060200190929190803590602001908201803590602001919091929391929390505050611127565b005b3480156105fa57600080fd5b5061061960048036038101908080359060200190929190505050611284565b005b34801561062757600080fd5b50610646600480360381019080803590602001909291905050506112a1565b005b34801561065457600080fd5b5061067d6004803603810190808035906020019092919080359060200190929190505050611492565b005b34801561068b57600080fd5b506106946119f7565b6040518082815260200191505060405180910390f35b3480156106b657600080fd5b506106eb600480360381019080803573ffffffffffffffffffffffffffffffffffffffff169060200190929190505050611a04565b005b600954341415156106fd57600080fd5b610747600160048381548110151561071157fe5b906000526020600020906003020160020160009054906101000a900463ffffffff1663ffffffff16611a2390919063ffffffff16565b60048281548110151561075657fe5b906000526020600020906003020160020160006101000a81548163ffffffff021916908363ffffffff16021790555050565b600060048054905083101515610806576040517f08c379a00000000000000000000000000000000000000000000000000000000081526004018080602001828103825260178152602001807f5a6f6d626965204944206f7574206f6620626f756e647300000000000000000081525060200191505060405180910390fd5b600760009054906101000a900473ffffffffffffffffffffffffffffffffffffffff1673ffffffffffffffffffffffffffffffffffffffff1663e98b7f4d836040518263ffffffff167c010000000000000000000000000000000000000000000000000000000002815260040180828152602001915050600060405180830381600087803b15801561089757600080fd5b505af11580156108ab573d6000803e3d6000fd5b505050506040513d6000823e3d601f19601f820116820180604052506101608110156108d657600080fd5b8101908080516401000000008111156108ee57600080fd5b8281019050602081018481111561090457600080fd5b815185600182028301116401000000008211171561092157600080fd5b505092919060200180519060200190929190805190602001909291908051906020019092919080519060200190929190805190602001909291908051906020019092919080519060200190929190805190602001909291908051906020019092919080519060200190929190505050909192939495969798995090919293949596979850909192939495969750909192939495965090919293949550909192939450909192935090919250909150905080915050600081111515610a4d576040517f08c379a00000000000000000000000000000000000000000000000000000000081526004018080602001828103825260118152602001807f4b6974747920444e4120696e76616c696400000000000000000000000000000081525060200191505060405180910390fd5b81837f39c459c43422beef4ce5057cb924f4158e6c1b478d24e57e284f6b3d1df078c760405160405180910390a3610abb83826040805190810160405280600581526020017f6b69747479000000000000000000000000000000000000000000000000000000815250611a4d565b505050565b600481815481101515610acf57fe5b9060005260206000209060030201600091509050806000018054600181600116156101000203166002900480601f016020809104026020016040519081016040528092919081815260200182805460018160011615610100020316600290048015610b7b5780601f10610b5057610100808354040283529160200191610b7b565b820191906000526020600020905b815481529060010190602001808311610b5e57829003601f168201915b5050505050908060010154908060020160009054906101000a900463ffffffff16908060020160049054906101000a900463ffffffff16908060020160089054906101000a900461ffff169080600201600a9054906101000a900461ffff16905086565b6000600760009054906101000a900473ffffffffffffffffffffffffffffffffffffffff16905090565b6000610c136110d0565b1515610c1e57600080fd5b610c266110a7565b90508073ffffffffffffffffffffffffffffffffffffffff166108fc3073ffffffffffffffffffffffffffffffffffffffff16319081150290604051600060405180830381858888f19350505050158015610c85573d6000803e3d6000fd5b5050565b606080600080600660008673ffffffffffffffffffffffffffffffffffffffff1673ffffffffffffffffffffffffffffffffffffffff16815260200190815260200160002054604051908082528060200260200182016040528015610cfd5781602001602082028038833980820191505090505b50925060009150600090505b600480549050811015610db0578473ffffffffffffffffffffffffffffffffffffffff166005600083815260200190815260200160002060009054906101000a900473ffffffffffffffffffffffffffffffffffffffff1673ffffffffffffffffffffffffffffffffffffffff161415610da357808383815181101515610d8c57fe5b906020019060200201818152505081806001019250505b8080600101915050610d09565b829350505050919050565b60056020528060005260406000206000915054906101000a900473ffffffffffffffffffffffffffffffffffffffff1681565b80600760006101000a81548173ffffffffffffffffffffffffffffffffffffffff021916908373ffffffffffffffffffffffffffffffffffffffff16021790555050565b600760009054906101000a900473ffffffffffffffffffffffffffffffffffffffff1681565b60148281600482815481101515610e6b57fe5b906000526020600020906003020160020160009054906101000a900463ffffffff1663ffffffff1610151515610ea057600080fd5b8360006005600083815260200190815260200160002060009054906101000a900473ffffffffffffffffffffffffffffffffffffffff1690508073ffffffffffffffffffffffffffffffffffffffff163373ffffffffffffffffffffffffffffffffffffffff16141515610f7c576040517f08c379a00000000000000000000000000000000000000000000000000000000081526004018080602001828103825260198152602001807f596f75206d757374206f776e2074686973207a6f6d6269652e0000000000000081525060200191505060405180910390fd5b84600487815481101515610f8c57fe5b906000526020600020906003020160010181905550505050505050565b610fb16110d0565b1515610fbc57600080fd5b600073ffffffffffffffffffffffffffffffffffffffff166000809054906101000a900473ffffffffffffffffffffffffffffffffffffffff1673ffffffffffffffffffffffffffffffffffffffff167f8be0079c531659141344cd1fd0a4f28419497f9722a3daafe3b4186f6b6457e060405160405180910390a360008060006101000a81548173ffffffffffffffffffffffffffffffffffffffff021916908373ffffffffffffffffffffffffffffffffffffffff160217905550565b600061108682611d1e565b905060648181151561109457fe5b06810390506110a38282611e0c565b5050565b60008060009054906101000a900473ffffffffffffffffffffffffffffffffffffffff16905090565b60008060009054906101000a900473ffffffffffffffffffffffffffffffffffffffff1673ffffffffffffffffffffffffffffffffffffffff163373ffffffffffffffffffffffffffffffffffffffff1614905090565b6002838160048281548110151561113a57fe5b906000526020600020906003020160020160009054906101000a900463ffffffff1663ffffffff161015151561116f57600080fd5b8460006005600083815260200190815260200160002060009054906101000a900473ffffffffffffffffffffffffffffffffffffffff1690508073ffffffffffffffffffffffffffffffffffffffff163373ffffffffffffffffffffffffffffffffffffffff1614151561124b576040517f08c379a00000000000000000000000000000000000000000000000000000000081526004018080602001828103825260198152602001807f596f75206d757374206f776e2074686973207a6f6d6269652e0000000000000081525060200191505060405180910390fd5b858560048981548110151561125c57fe5b9060005260206000209060030201600001919061127a929190612420565b5050505050505050565b61128c6110d0565b151561129757600080fd5b8060098190555050565b60003373ffffffffffffffffffffffffffffffffffffffff166005600084815260200190815260200160002060009054906101000a900473ffffffffffffffffffffffffffffffffffffffff1673ffffffffffffffffffffffffffffffffffffffff16141515611379576040517f08c379a00000000000000000000000000000000000000000000000000000000081526004018080602001828103825260198152602001807f596f75206d757374206f776e2074686973207a6f6d6269652e0000000000000081525060200191505060405180910390fd5b60048281548110151561138857fe5b9060005260206000209060030201905060018160020160009054906101000a900463ffffffff1663ffffffff16111515611450576040517f08c379a00000000000000000000000000000000000000000000000000000000081526004018080602001828103825260278152602001807f5a6f6d62696520697320616c726561647920617420746865206d696e696d756d81526020017f206c6576656c2e0000000000000000000000000000000000000000000000000081525060400191505060405180910390fd5b80600201600081819054906101000a900463ffffffff16809291906001900391906101000a81548163ffffffff021916908363ffffffff160217905550505050565b6000806000808560006005600083815260200190815260200160002060009054906101000a900473ffffffffffffffffffffffffffffffffffffffff1690508073ffffffffffffffffffffffffffffffffffffffff163373ffffffffffffffffffffffffffffffffffffffff16141515611574576040517f08c379a00000000000000000000000000000000000000000000000000000000081526004018080602001828103825260198152602001807f596f75206d757374206f776e2074686973207a6f6d6269652e0000000000000081525060200191505060405180910390fd5b3373ffffffffffffffffffffffffffffffffffffffff16600560008a815260200190815260200160002060009054906101000a900473ffffffffffffffffffffffffffffffffffffffff1673ffffffffffffffffffffffffffffffffffffffff16141515611670576040517f08c379a00000000000000000000000000000000000000000000000000000000081526004018080602001828103825260218152602001807f596f75206d757374206f776e20746865207a6f6d62696520746f20617474616381526020017f6b0000000000000000000000000000000000000000000000000000000000000081525060400191505060405180910390fd5b600480549050871015156116ec576040517f08c379a00000000000000000000000000000000000000000000000000000000081526004018080602001828103825260118152602001807f496e76616c69642074617267657420494400000000000000000000000000000081525060200191505060405180910390fd5b6004888154811015156116fb57fe5b9060005260206000209060030201955060048781548110151561171a57fe5b90600052602060002090600302019450428660020160049054906101000a900463ffffffff1663ffffffff16111515156117bc576040517f08c379a00000000000000000000000000000000000000000000000000000000081526004018080602001828103825260168152602001807f5a6f6d62696520697320636f6f6c696e6720646f776e0000000000000000000081525060200191505060405180910390fd5b6117c660646121b5565b9350600b54841115925082156118ff5761180060018760020160089054906101000a900461ffff1661ffff166122b890919063ffffffff16565b8660020160086101000a81548161ffff021916908361ffff16021790555061184c60018760020160009054906101000a900463ffffffff1663ffffffff16611a2390919063ffffffff16565b8660020160006101000a81548163ffffffff021916908363ffffffff160217905550611898600186600201600a9054906101000a900461ffff1661ffff166122b890919063ffffffff16565b85600201600a6101000a81548161ffff021916908361ffff1602179055506118fa8886600101546040805190810160405280600681526020017f7a6f6d6269650000000000000000000000000000000000000000000000000000815250611a4d565b611999565b611929600187600201600a9054906101000a900461ffff1661ffff166122b890919063ffffffff16565b86600201600a6101000a81548161ffff021916908361ffff16021790555061197160018660020160089054906101000a900461ffff1661ffff166122b890919063ffffffff16565b8560020160086101000a81548161ffff021916908361ffff160217905550611998866122de565b5b6119a2866122de565b7f1e0e8940c43a14e3381da05908e521291d29c1211ab0f45168d7d9a12970578b8389896040518084151515158152602001838152602001828152602001935050505060405180910390a15050505050505050565b6000600480549050905090565b611a0c6110d0565b1515611a1757600080fd5b611a2081612308565b50565b60008082840190508363ffffffff168163ffffffff1610151515611a4357fe5b8091505092915050565b600080600485815481101515611a5f57fe5b9060005260206000209060030201915060025484811515611a7c57fe5b069350600284836001015401811515611a9157fe5b04905060405160200180807f6b6974747900000000000000000000000000000000000000000000000000000081525060050190506040516020818303038152906040526040518082805190602001908083835b602083101515611b095780518252602082019150602081019050602083039250611ae4565b6001836020036101000a038019825116818451168082178552505050505050905001915050604051809103902060001916836040516020018082805190602001908083835b602083101515611b735780518252602082019150602081019050602083039250611b4e565b6001836020036101000a0380198251168184511680821785525050505050509050019150506040516020818303038152906040526040518082805190602001908083835b602083101515611bdc5780518252602082019150602081019050602083039250611bb7565b6001836020036101000a0380198251168184511680821785525050505050509050019150506040518091039020600019161415611c28576063606482811515611c2157fe5b0682030190505b600081111515611ca0576040517f08c379a00000000000000000000000000000000000000000000000000000000081526004018080602001828103825260168152602001807f496e76616c696420444e412063616c63756c617465640000000000000000000081525060200191505060405180910390fd5b611cdf6040805190810160405280600681526020017f4e6f4e616d65000000000000000000000000000000000000000000000000000081525082611e0c565b847fd9b729d51a298bb5e442ce7e6b3039aa14c55cc3cd568faf20e695ee72c81468826040518082815260200191505060405180910390a25050505050565b600080826040516020018082805190602001908083835b602083101515611d5a5780518252602082019150602081019050602083039250611d35565b6001836020036101000a0380198251168184511680821785525050505050509050019150506040516020818303038152906040526040518082805190602001908083835b602083101515611dc35780518252602082019150602081019050602083039250611d9e565b6001836020036101000a038019825116818451168082178552505050505050905001915050604051809103902060019004905060025481811515611e0357fe5b06915050919050565b60006001600460c060405190810160405280868152602001858152602001600163ffffffff168152602001600354420163ffffffff168152602001600061ffff168152602001600061ffff16815250908060018154018082558091505090600182039060005260206000209060030201600090919290919091506000820151816000019080519060200190611ea29291906124a0565b506020820151816001015560408201518160020160006101000a81548163ffffffff021916908363ffffffff16021790555060608201518160020160046101000a81548163ffffffff021916908363ffffffff16021790555060808201518160020160086101000a81548161ffff021916908361ffff16021790555060a082015181600201600a6101000a81548161ffff021916908361ffff1602179055505050039050336005600083815260200190815260200160002060006101000a81548173ffffffffffffffffffffffffffffffffffffffff021916908373ffffffffffffffffffffffffffffffffffffffff160217905550611feb6001600660003373ffffffffffffffffffffffffffffffffffffffff1673ffffffffffffffffffffffffffffffffffffffff1681526020019081526020016000205461240290919063ffffffff16565b600660003373ffffffffffffffffffffffffffffffffffffffff1673ffffffffffffffffffffffffffffffffffffffff168152602001908152602001600020819055507f88f026aacbbecc90c18411df4b1185fd8d9be2470f1962f192bf84a27d0704b78184846040518084815260200180602001838152602001828103825284818151815260200191508051906020019080838360005b8381101561209e578082015181840152602081019050612083565b50505050905090810190601f1680156120cb5780820380516001836020036101000a031916815260200191505b5094505050505060405180910390a13373ffffffffffffffffffffffffffffffffffffffff166005600083815260200190815260200160002060009054906101000a900473ffffffffffffffffffffffffffffffffffffffff1673ffffffffffffffffffffffffffffffffffffffff161415156121b0576040517f08c379a00000000000000000000000000000000000000000000000000000000081526004018080602001828103825260178152602001807f5a6f6d626965206f776e657273686970206661696c656400000000000000000081525060200191505060405180910390fd5b505050565b60006121cd6001600a5461240290919063ffffffff16565b600a81905550814233600a54604051602001808481526020018373ffffffffffffffffffffffffffffffffffffffff1673ffffffffffffffffffffffffffffffffffffffff166c0100000000000000000000000002815260140182815260200193505050506040516020818303038152906040526040518082805190602001908083835b6020831015156122765780518252602082019150602081019050602083039250612251565b6001836020036101000a0380198251168184511680821785525050505050509050019150506040518091039020600190048115156122b057fe5b069050919050565b60008082840190508361ffff168161ffff16101515156122d457fe5b8091505092915050565b60085442018160020160046101000a81548163ffffffff021916908363ffffffff16021790555050565b600073ffffffffffffffffffffffffffffffffffffffff168173ffffffffffffffffffffffffffffffffffffffff161415151561234457600080fd5b8073ffffffffffffffffffffffffffffffffffffffff166000809054906101000a900473ffffffffffffffffffffffffffffffffffffffff1673ffffffffffffffffffffffffffffffffffffffff167f8be0079c531659141344cd1fd0a4f28419497f9722a3daafe3b4186f6b6457e060405160405180910390a3806000806101000a81548173ffffffffffffffffffffffffffffffffffffffff021916908373ffffffffffffffffffffffffffffffffffffffff16021790555050565b600080828401905083811015151561241657fe5b8091505092915050565b828054600181600116156101000203166002900490600052602060002090601f016020900481019282601f1061246157803560ff191683800117855561248f565b8280016001018555821561248f579182015b8281111561248e578235825591602001919060010190612473565b5b50905061249c9190612520565b5090565b828054600181600116156101000203166002900490600052602060002090601f016020900481019282601f106124e157805160ff191683800117855561250f565b8280016001018555821561250f579182015b8281111561250e5782518255916020019190600101906124f3565b5b50905061251c9190612520565b5090565b61254291905b8082111561253e576000816000905550600101612526565b5090565b905600a165627a7a7230582072a5e20d2f7766561372ebe4e07cda00b18c97cd6b00a79731882ec76abe29b70029",
  "source": "pragma solidity ^0.4.25;\n\nimport \"./zombiehelper.sol\";\n\ncontract ZombieAttack is ZombieHelper {\n    uint randNonce = 0;\n    uint attackVictoryProbability = 70;\n\n    // Event emitted after an attack to notify the result\n    event AttackResult(bool success, uint zombieId, uint targetId);\n\n    // Generate random number using block timestamp, sender, and nonce\n    function randMod(uint _modulus) internal returns (uint) {\n        randNonce = randNonce.add(1); // Increase nonce\n        return uint(keccak256(abi.encodePacked(now, msg.sender, randNonce))) % _modulus;\n    }\n\n    // Attack another zombie (target)\n    function attack(uint _zombieId, uint _targetId) external onlyOwnerOf(_zombieId) {\n        // Check if the zombie belongs to the sender\n        require(zombieToOwner[_zombieId] == msg.sender, \"You must own the zombie to attack\");\n\n        // Ensure the target ID is valid\n        require(_targetId < zombies.length, \"Invalid target ID\");\n\n        Zombie storage myZombie = zombies[_zombieId];\n        Zombie storage enemyZombie = zombies[_targetId];\n\n        // Check for cooldown to avoid multiple attacks in a short time\n        require(myZombie.readyTime <= now, \"Zombie is cooling down\");\n\n        uint rand = randMod(100);\n        bool success = rand <= attackVictoryProbability;\n\n        if (success) {\n            // Attack succeeded\n            myZombie.winCount = myZombie.winCount.add(1);\n            myZombie.level = myZombie.level.add(1);\n            enemyZombie.lossCount = enemyZombie.lossCount.add(1);\n\n            // Feed on the losing zombie\n            feedAndMultiply(_zombieId, enemyZombie.dna, \"zombie\");\n        } else {\n            // Attack failed\n            myZombie.lossCount = myZombie.lossCount.add(1);\n            enemyZombie.winCount = enemyZombie.winCount.add(1);\n\n            // Trigger cooldown for the attacking zombie\n            _triggerCooldown(myZombie);\n        }\n\n        // Trigger cooldown for the zombie after attack\n        _triggerCooldown(myZombie);\n\n        // Emit the result of the attack\n        emit AttackResult(success, _zombieId, _targetId);\n    }\n}\n",
  "sourcePath": "/Users/dheerajkommineni/Desktop/AdvBlockchain/StarterPack/Cryptozombie DApp/contracts/zombieattack.sol",
  "compiler": {
    "name": "solc",
    "version": "0.4.25+commit.59dbf8f1.Emscripten.clang"
  },
  "schemaVersion": "3.4.16",
  "updatedAt": "2024-10-22T08:00:37.876Z",
  "networkType": "ethereum",
  "devdoc": {
    "methods": {
      "isOwner()": {
        "return": "true if `msg.sender` is the owner of the contract."
      },
      "owner()": {
        "return": "the address of the owner."
      },
      "renounceOwnership()": {
        "details": "Allows the current owner to relinquish control of the contract."
      },
      "transferOwnership(address)": {
        "details": "Allows the current owner to transfer control of the contract to a newOwner.",
        "params": {
          "newOwner": "The address to transfer ownership to."
        }
      }
    }
  },
  "userdoc": {
    "methods": {
      "renounceOwnership()": {
        "notice": "Renouncing to ownership will leave the contract without an owner. It will not be possible to call the functions with the `onlyOwner` modifier anymore."
      }
    }
  }
}